:020000040800F2
:1000000000400020159A00085D9900085D9A0008DC
:100010005F990008619900086399000800000000DA
:100020000000000000000000000000005D9A0008D1
:1000300065990008000000005D9A00086D810008C5
:100040005D9A00085D9A00085D9A00085D9A0008B4
:100050005D9A00085D9A0008798500088785000888
:1000600095850008A3850008B18500085D9A000801
:100070005D9A00085D9A00085D9A00085D9A000884
:100080005D9A00085D9A00085D9A00085D9A000874
:10009000FDD900085D9A00085D9A0008BF85000838
:1000A000000000005D9A00085D9A00085D9A000853
:1000B0005D9A00085D9A00085D9A00085D9A000844
:1000C0005D9A00085D9A00085D9A00085D9A000834
:1000D0005D9A0008459900085D9A00085D9A00083D
:1000E000E9850008319000085D9A00085D9A0008D3
:1000F0005D9A000800000000000000000000000001
:1001000000000000000000000000000000000000EF
:1001100000000000000000000000000000000000DF
:1001200000000000000000000000000000000000CF
:1001300000000000000000005FF808F110B5054C59
:10014000237833B9044B13B10448AFF30080012383
:10015000237010BD4801002000000000CCFB000807
:1001600008B5034B1BB103490348AFF3008008BD3A
:10017000000000004C010020CCFB000808B504483A
:1001800005F06CFC0121034804F02BFE08BD00BF04
:1001900088020020FC0F002008B5044805F05EFC32
:1001A0000121034804F01DFE08BD00BF74020020B9
:1001B0007410002008B543781BB1064B01221A7059
:1001C00008BD0021044804F00CFE044805F0E8FBDB
:1001D000F3E700BF28000020741000207402002004
:1001E00000B589B0164805F039FC01238DF81430AC
:1001F00005A802F015FB40B99DF8183043B1114B2A
:1002000002221A70104B01221A7009B05DF804FB2B
:1002100000238DF800300D4A01920D4A02920D4ADA
:1002200003928DF81030684602F0DAFD18B9054BDC
:1002300004221A70E9E7034B03221A70E5E700BFB6
:10024000A002002070020020280000206802002088
:10025000580200200400002008B50378042B00D0C9
:1002600008BDFFF7BDFFFBE703782BB1012B27D0BB
:100270001B4B01221A70704743781BB9194B02229D
:100280001A70F5E700B587B000238DF80430164AE0
:100290000292164A0392164A04928DF8143001A86D
:1002A00002F09EFD40B90F4B04221A700C4B012244
:1002B0001A7007B05DF804FB0A4B03221A70F5E7C9
:1002C0004378002BD4D10B4B1B78002BD0D0094B9B
:1002D00001229A73027ADA73427A1A74C8E700BF6D
:1002E0002800002070020020680200205802002030
:1002F00004000020940D00204378002B40F01D8165
:1003000030B589B004464379012B44D08B4B1B7820
:100310001BB18A498A8901328A81627B002A40D0D6
:10032000E27851B200293CD0022A37D9E02A38D1EC
:10033000002B4BD1237B042B33D1A3681A78012ADD
:100340002FD15A78012A2CD19A78012A29D1DB7829
:10035000012B26D100247A4B1C707A4BE0221A70B4
:10036000794B1978794A117002211970734B9C816D
:100370009C73DC731C7401221A705A708DF80C1077
:100380008DF8102003A802F053FB204602F084FEF3
:1003900004F054FD05E0FFF723FFB7E7237B012BB3
:1003A00008D000216A4804F01CFD6A4805F0F8FAFC
:1003B00009B030BDA368197801F00101664B1970CE
:1003C00081F00101654804F00CFDEAE7A2681378AA
:1003D0005A494B70072BE4D8DFE803F0041F2329A8
:1003E00030464D7D0023564A1370022255490A704B
:1003F000564908785449087050498B810B708DF824
:100400000C2001248DF8104003A802F011FB2046B7
:1004100002F042FE04F00EFDC3E74B4B02221A70BD
:10042000BFE70123464A1370444A5370B9E7444B6F
:1004300000221A70414B01225A70B2E7207B424BD6
:100440001870474B04221A70012306E0A268D25CA0
:1004500001324349CA540133DBB20246F22828BFB5
:10046000F2229A42F2D89CE701238DF80C3003A8BF
:1004700002F0B6FC95E70024314B1C700223314A90
:100480001370324A1178304A11702C4A94811470DA
:100490008DF8003001258DF80450684602F0C8FA46
:1004A000284602F0F9FD04F0C5FC8DF80C402D4BF8
:1004B00004932D4B05932D4B06938DF81C4003A8F8
:1004C00002F08EFC18B92A4B04221A7069E7284BF7
:1004D00003221A7065E7237B032B05D0072B10D06E
:1004E000164B01225A705CE702238DF80C305178CC
:1004F000937843EA0123ADF8103003A802F070FCB2
:10050000EEE703238DF80C305178937843EA01230A
:10051000ADF81030D17813791B0243EA01435279C8
:100520001343642202FB03F30593A3689B798DF8C0
:10053000183003A802F054FCD2E77047940D002055
:1005400071020020140000200000002001000020A3
:10055000FC0F00208802002060020020081000200C
:1005600064010020680200205802002004000020DE
:1005700070020020022802D0E02849D07047F0B570
:1005800083B00023019307F07CFA35490EF0B4FDE7
:100590000EF028FF86B207F041F932490EF0ACFDAB
:1005A0000EF0FAFE05B207F067FA2F490EF0A4FD2F
:1005B0000EF0F2FE04B207F063FE074601A968469A
:1005C00005F00AF904F0F2FD1023284A1370284AB6
:1005D0001370284B284A12781A70320A5A709E708B
:1005E0002A12DA701D7122125A719C71DF71009A01
:1005F00011141972111259729A72019A1114D97246
:10060000111219735A7302129A73D87303B0F0BDA2
:100610001A4B9B7B7BB1194B00229A73134A03211F
:100620001170144A05211170D97B5170197C917099
:1006300001225A707047114B5B78012B05D0042BB7
:100640000DD10E4B01225A707047084B02221A70CE
:100650000A4B9A89074B110A19705A7070477047F4
:10066000CDCCCC3D0000C84200002041000000205D
:10067000010000206401002060020020940D002091
:1006800000B587B001A91E4B187802F051F878B177
:1006900000238DF808300493ADF814308DF816302F
:1006A00002A802F03BFC48B3012007B05DF804FB50
:1006B000144B1B7873B98DF80830134A12788DF8F3
:1006C0000C20124A04920E4A1278ADF814208DF8CC
:1006D0001630E5E701238DF808300B4B1B788DF8B9
:1006E0000C300A4B0493064B1B78ADF814300823EA
:1006F0008DF8173000238DF81630D1E70020D4E7AD
:10070000000000207102002014000020640100207D
:1007100000B589B007F074FD07F018FC604B0022AB
:100720001A703AE05F4B04935F4B05935F4B06935F
:100730005F4B07935F4B0393052203A904A801F0C5
:10074000A5FE5D495D4805F01FF95D4C5D492046F9
:1007500005F01AF91921204605F0CEF95A4C5B49EB
:10076000204605F011F91921204605F0C5F90223AC
:100770008DF8003001248DF80440684602F058F9E5
:1007800007238DF800308DF80440684602F050F9D8
:10079000204602F081FC424B1C70414B1B78042B1D
:1007A0007AD801A252F823F025070008BD070008F7
:1007B000350800087908000893080008444B1B68B6
:1007C00063B303238DF8003000230193684602F0E1
:1007D0002FF904238DF800303D4B1B6801936846C8
:1007E00002F026F905238DF800303A4B0193684654
:1007F00002F01EF906238DF80030374B019368464E
:1008000002F016F901238DF800308DF804306846A7
:1008100002F00EF9224B02221A70BEE707F062FCCA
:1008200009F0BAF86FF07E41002009F0BBF8284BC0
:100830001860C6E7294B1B7853B9294B1B7883B145
:10084000284B41F288321A60154B03221A70A4E734
:10085000254B1878FFF78EFEFFF712FF1F4B18701D
:10086000EBE74FF47A71214809F09CF800F59C50B1
:1008700008301C4B1860E7E7094B04221A700F4C34
:10088000184B1968204605F037F9204605F088F81E
:1008900083E705F041F980E7014B00221A707CE7FD
:1008A00070020020B5010008F90200086902000882
:1008B0005902000881820008E1010008A00200201E
:1008C0007402002099010008880200207D010008C0
:1008D000640200202C0000201800002028000020C6
:1008E000940D00209C0200201400002018FCFFFF43
:1008F00008B520B9044B5B6B0846984708BD024B0E
:100900005B6B00209847F9E73CFA0008034B1B7823
:100910000BB9002070470120704700BF440600203B
:10092000044B04221A70044A137843F01003137026
:10093000704700BF98060020A80D002070B54F4BEF
:100940001B78C3F18003DBB2841E082C00F2878081
:10095000DFE804F00513212B3D4E5C6A7400484A21
:1009600012789A427DD2511C454B1970454B9854D0
:10097000454B01221A70002070BD414A1278013B9C
:100980009A4270DA531CDBB23E4CA054581C3C4ACD
:100990001070E154ECE73A4A12789A4265D2511C41
:1009A000374B1970374B9854E2E7354A1278013BC0
:1009B0009A4201DB0120DFE7531CDBB2314CA0542B
:1009C000581C2F4A1070E154FFF7AAFFD0E72C4CB7
:1009D0002478023B9C424ADA651CEDB2294E305520
:1009E0006B1CDBB27155581C25490870F254BFE7E7
:1009F000234A1278013B9A423BDA531CDBB2214C6A
:100A0000A054581C1E4A1070E154B1E71C4A1278D9
:100A10009A4201D30120AFE7511C194B1970194BB1
:100A20009854FFF77DFFA3E7154A12789A4222D225
:100A3000511C134B1970134B985499E7104A1278B4
:100A40009A4201D3012097E7531CDBB20D4CA0540E
:100A5000581C0B4A1070E154FFF762FF88E7022030
:100A60008AE7012088E7012086E7012084E701204A
:100A700082E7012080E701207EE700BF44060020D6
:100A8000C00500204005002045060020002835D084
:100A900070B40646002A33D0002003460AE0013332
:100AA000DBB2441CE4B215540230C0B2F55C1555FB
:100AB0000133DBB28B4224D2F55CEC1E072CF7D855
:100AC0000FF2040C5CF824F0F70A0008B10A0008E1
:100AD0009F0A0008F10A0008F70A0008E90A00085E
:100AE000B10A00089F0A0008441C1554E0B2DFE771
:100AF0000233DBB2DCE70133DBB2D9E70020704719
:100B0000002070BC704700BFE02801D8012070476A
:100B10000020704710B584B0124B1B788DF804305C
:100B2000114B1B788DF806308DF807000F4B1868B5
:100B300004F0EEFF02900E4C236803930D4B1B78DC
:100B40008DF8053001A90C4B187802F0B7FC0B4B5F
:100B50001B885A1E236803FB02F3094A136004B082
:100B600010BD00BFE5020020E402002018040020B0
:100B700034070020E802002034040020D2020020C4
:100B8000D802002030B583B005461446104B93F8C8
:100B90002C308DF806308DF8051009238DF80430BF
:100BA0000C4B1B7813B10A238DF8043001A90A4BB2
:100BB000187802F0DFFB80B26219904203D3FF2A5B
:100BC00004D9002000E0002003B030BD0120FBE785
:100BD000E40D0020C00600203404002038B50024B5
:100BE000284B1C70284B1C60284B1C60284B1C6039
:100BF000284B1C700123284A1370284A1370284A76
:100C00001470284A1470284A1380284A1470284AFD
:100C10001470284A1370284A92F90010274B197053
:100C200092F90110597092F8211083F8211003F104
:100C3000240502F1240103C985E8030092F82C1071
:100C400083F82C1092F82D1083F82D10116B196376
:100C5000526B5A6302211A4B187802F09CFB194B15
:100C60001C70194B1C70194B1C70194B1B681BB165
:100C700000225A629B6AFAE7164A1370164A1370EA
:100C800038BD00BFE502002038070020E002002048
:100C9000CC020020DD0200203C0000203D000020AE
:100CA000B40200205C060020D2020020C005002013
:100CB000440600203E000020AC0D0020E40D002082
:100CC00034040020A00600201C0700204506002058
:100CD0009C060020DC020020E702002008B530B9A5
:100CE000022900D008BD084804F0B8FEFAE73AB976
:100CF0009DF808209342F5D9034804F0AFFEF1E7D0
:100D0000014804F0ABFEEDE7B802002008B50C483E
:100D100004F0A4FE0B4B1B783BB10B4B01221A7065
:100D20000A4A136823F004031360094B1B78022B53
:100D300000D008BD074A137843F020031370F8E78A
:100D4000B8020020A0060020B402002038050020D0
:100D500016040020A80D002010B50C4A136843F0BB
:100D6000400313600A4B1B786BB90A4A137843F0AF
:100D700022031370084C0121204604F0BDFE2046DA
:100D800004F00EFE10BDFFF7C1FFEEE738050020AE
:100D9000A0060020A80D0020480600202DE9F04301
:100DA00089B006460C4617469846BC4280F06981D9
:100DB000651CEDB2335D023B082B00F26281DFE877
:100DC00013F0090015006F007E00B600C800F200A5
:100DD00008013F01AC4B00225A70A21CD2B2715DD7
:100DE00019720334E4B2B25C5A72DEE700238DF864
:100DF00009308DF80A308DF80B308DF80C306B1EF1
:100E0000334405937B1B01338DF818309F4B1B78BF
:100E10008DF81A309E4B93F82C208DF8192093F9F9
:100E200001208DF81B2093F900208DF81C2093F8E9
:100E300020308DF81D3003AB01930DF10B030093AF
:100E40000DF10A030DF1090205A99248007802F09C
:100E5000F6FA814600F00703072B10D000249DF816
:100E60000C208D4BA3FB0213B4EB930F13D2002283
:100E700049460320FFF762FD0134E4B2EFE7844BFB
:100E80009DF809205A709DF80A201A709DF80B20D1
:100E900083F82020E2E75419E4B2013CE4B284E78D
:100EA0000234E4B2725D7D4B1A70012393407C4A98
:100EB0001380002211460420FFF740FD75E7735DA3
:100EC000C3F302138DF81530735703F00F038DF839
:100ED0001430A31CDBB2E11CC9B2F35C221DD2B2F8
:100EE000715C43EA01230534E4B2B25C43EA024395
:100EF000642202FB03F3069305A9664B187802F0FF
:100F0000B0FA014600F00703072B04D000220520A9
:100F1000FFF714FD49E79DF814205D4B83F8282066
:100F2000069A5A629DF8152083F82120EEE75D4B62
:100F30001B6853B11B6853B19847014608F03F0244
:100F40000620FFF7FBFC2C462FE7FF21F6E7FF21E9
:100F5000F4E7A31CDBB272578DF8102005AA0392A8
:100F6000E21CD2B2F35C211DC9B2B25C43EA022397
:100F7000621DD2B2715C43EA0143642101FB03F3B9
:100F80000593002506950634E4B2B3568DF81C305F
:100F900003A9404B187802F06DFA2A460146072053
:100FA000FFF7CCFC01E70234E4B2735D13F00F02EB
:100FB00000D101324FF47A7303FB02F3344A136118
:100FC00003F57A735361002211460820FFF7B6FC3F
:100FD000EBE60234E4B2735D00228DF814208DF844
:100FE000152013F0200F02D001228DF8152013F0E8
:100FF000100F02D001228DF8142003F00F038DF89A
:10100000163005A9234B187802F03DFAB0F1FF3FE6
:101010003FF4CBAE9DF814301D4D85F82C309DF873
:10102000153085F82D309DF816301F4AD05C0EF033
:101030000BF82863002211460920FFF77FFCB4E675
:10104000A31CDBB2725D8DF81420E11CC9B2F35C05
:10105000221DD2B2715C43EA01230534E4B2B25CD2
:1010600043EA0243642202FB03F3069305A9094BFA
:10107000187802F011FA002201460A20FFF75EFC00
:1010800093E609B0BDE8F0838C060020D002002072
:10109000E40D002034040020CDCCCCCC5C06002034
:1010A000D202002008040020C4F500082DE9F04F0A
:1010B00091B005460E4600200C907749087177499B
:1010C000CA815FFA83F981F81090754B1B784B74D5
:1010D000C870887048718860087348738874486164
:1010E0000870704BDB6A98476F4804F0B7FC95F8BE
:1010F00000804FEA5813013B062B00F29582DFE88F
:1011000013F00700930284009302840093026D029F
:10111000664B1B783BBB664CDFF8C491771E631CA3
:10112000D9F80020B9B2681C02F0B0F884F8008049
:10113000351F0CABD9F80020A9B2204602F07CF88C
:10114000635DF21EA25C43EA0223B21EA25C43EA84
:101150000243E25D43EA02630C9A9A4209D0554B7E
:1011600007225A704DE24D4B01225A70FFF7F4FDF1
:1011700057E2514B0093514B514A1288611CD9F8E8
:10118000000002F0A7F82379627943EA0223A279EA
:1011900043EA02434B4A1360E379227A43EA02238B
:1011A000627A43EA0243A27A43EA0263464A136040
:1011B000E37AC3F30211454A82F8211003F00F03CA
:1011C00082F82830237B03F00F03136113B9134611
:1011D00001221A613D4A11694FF47A7303FB01F34E
:1011E000136103F57A735361394B0E93113E8DF8F9
:1011F0003C600EA9374B187802F0DFF82D4B002227
:101200005A702A4B01221A70FBE1304B93F82D30B3
:101210008DF83630214B93F904308DF835300923A1
:101220008DF834302C4B1B7813B10A238DF83430F1
:101230000DA9284B187802F09DF8A6F10D031BB2FA
:1012400023EAE373834217D86F78AB7847EA032722
:10125000EB7847EA03472B7947EA03671A4B1B6889
:10126000BB4200F0ED801D4B1C68002C3AD0236877
:10127000BB4207D0A46AF8E7084B01225A70FFF777
:101280006BFDCEE1231D069304F114030B93636AF7
:101290000493012305932CE06006002074060020CF
:1012A000C10600203CFA000808070020E5020020E3
:1012B000380400208C060020F402002020040020C6
:1012C000140400201C0400200C040020E40D002065
:1012D0004504002034040020C00600209C060020A5
:1012E000F002002000230593B04A0B92B04A069208
:1012F0000493059B002B00F09D8095F805B0AB7919
:10130000E97943EA01210BF00F030A9308330993AB
:10131000AA1912F8043C12F8030C43EA002312F84D
:10132000020C43EA004312F8012C43EA02630893DB
:10133000DDF810C01FFA8CF3CB1A9BB207930FFA9B
:1013400083FABAF1000FC0F28580614619448A46DB
:10135000311F0CAB0293CDF804A0012300933B4650
:10136000069A89B2284601F0ABFE0C9B089A93427C
:1013700000F08A800023049311238DF834300DA9E6
:101380008C4B187801F0F6FF079B834280F0828037
:10139000049B002B00F00481874A002353700598BA
:1013A0009070CBF30011517193601373C2F814A0C5
:1013B000824A5370824A1360824A1370002871D1A6
:1013C00008F0E008B8F1A00F7DD000237E4A13702A
:1013D000794A13707D4B1B68534500F085807B4B29
:1013E000C3F800A0754B1B78012B00F08680784B6A
:1013F00000221A70331F099A9B1A002B40F3C680F3
:101400000A9C0934AB5C361BF6B2043EF6B26A4A5B
:10141000D370002B40F094801BF00F0F7BD06D4AEF
:10142000137843F0040313700023644A1371624A73
:1014300093749EE0604B0B225A70FFF78DFCF0E036
:10144000624B1B68049300240594584B0B93584B34
:10145000069352E7049B9A440AF5803A311F0CAB7D
:101460000293CDF804A0012300933B46069A89B26B
:10147000284601F025FE0C9B089A934207D0DDF820
:1014800010A00023049377E70123049374E701235A
:10149000049371E7484B0A225A70C3F814A0FFF76F
:1014A0005BFCBEE0444B02221A70636A534502D0D3
:1014B000C4F824A096E7002BFAD03F4B08225A70BC
:1014C000FFF74AFCADE001233F4A13703A4A13701C
:1014D0003E4B1B68534582D1002B80D03D4A137888
:1014E00043F0040313707AE7002B3FF478AF134600
:1014F00008225A70FFF730FC93E01BF0200F3FF4F6
:1015000079AF334B00221A70CBF340132B4A13717F
:10151000294A93746EE7DFF8C080CDF80880CDF8D3
:1015200004A0012300933B46069A3146281901F096
:1015300075FE4B46324600214046FFF72FFC18E06F
:101540001BF00F0F1BD1DFF89080CDF80880CDF88D
:1015500004A04FF00109CDF800903B460B9A3146AC
:10156000281901F05BFE144BC3F808801E7383F842
:101570000D90184A137843F00203137041E04B4674
:10158000099A08212846FFF709FCDCE71BF00F0F3A
:10159000EFD04B46099A08212846FFF7FFFBE8E702
:1015A000054B0C225A70FFF7D7FB3AE0F4020020FB
:1015B000200400203404002074060020600600206F
:1015C000CC020020440600201C070020E00200207E
:1015D000C0050020A80D0020380400201C4C324615
:1015E000691C204608F0EBF91A4B03221A700022FE
:1015F0005A709C60013E1E73174A137843F0020331
:101600001370164B1B780093154B1B78154A1279F3
:101610001549097815480078FFF760FB144B1B7AD1
:1016200043B111B0BDE8F08F0A4B01225A70FFF7A9
:1016300093FBE6E7084A137843F0200313700D4C40
:101640000121204604F058FA204604F0A9F9E8E701
:101650003804002074060020A80D00203C00002063
:101660003D0000206006002016040020A006002097
:10167000B80200204806002008B5174804F0EEF92B
:10168000164B174A12781A70164A516A596092F826
:101690002D201A74144A12785A740122DA74134BEA
:1016A0001B78022B0AD00D4B00229A74104A0B496A
:1016B000104B187801F0ADFE20B908BD074B012290
:1016C0009A74F3E7074BD968044B987CFFF710F93D
:1016D000094B01221A70F0E708070020DC06002001
:1016E000DC020020E40D0020C006002016040020CB
:1016F0007806002034040020C106002008B5FFF75A
:10170000BBFF024B02221A7008BD00BFC1060020B9
:1017100008B5214B1B78022B02D0204BDB6A98477F
:101720001F4B1B78EBB91F4B1B7813B11E4B0322C9
:101730005A701E4B03225A70174B1B78022B22D073
:101740001B4B186804F0E4F91A4B1B6898421AD333
:10175000194804F083F9194A137843F020031370F1
:1017600011E0104B1B7813B10F4B04225A700F4B32
:1017700004225A70084B1B78022B04D00F4A1378AE
:1017800043F020031370044B1B78022B00D008BDDC
:10179000FFF7B4FFFBE700BF160400203CFA000887
:1017A000C1060020A0060020600600208C06002054
:1017B000D4020020F006002008070020A80D002019
:1017C00008B50A4B1B78022B0DD0094BDB6A9847F2
:1017D0000223084A5370084A5370084A137843F0AA
:1017E0002003137008BDFFF789FFF1E716040020FE
:1017F0003CFA0008600600208C060020A80D00209E
:1018000008B5214B1B78022B02D0204BDB6A98478E
:101810001F4B1B78EBB91F4B1B7813B11E4B0522D6
:101820005A701E4B05225A70174B1B78022B22D080
:101830001B4B186804F06CF91A4B1B6898421AD3BA
:10184000194804F00BF9194A137843F02003137078
:1018500011E0104B1B7813B10F4B06225A700F4B3F
:1018600006225A70084B1B78022B04D00F4A1378BB
:1018700043F020031370044B1B78022B00D008BDEB
:10188000FFF73CFFFBE700BF160400203CFA00080E
:10189000C1060020A0060020600600208C06002063
:1018A000D4020020F006002008070020A80D002028
:1018B00030B585B004F028F904463F4B1B78022B65
:1018C00024D03E4BDB6A98473D4B1B780BBB3D4B0E
:1018D00000225A703C4B04225A703C4B1B781BB9B7
:1018E0003A4A43F001031370384A137843F0200357
:1018F0001370364B1B7813F0080F3CD0324B1B781B
:10190000002B38D1324B01221A7037E0FFF7F6FE78
:10191000DAE7304D304B1968284604F0EDF82846D8
:1019200004F03EF8244B1B78022B1AD1224B1B7873
:10193000022B03D0294B1B78002BDAD012238DF811
:101940000C3003A9264B187801F014FD254B1968BB
:10195000254D0144284604F0CFF8284604F020F82D
:10196000C7E7224D1F4B1968284604F0C5F82846E2
:1019700004F016F8DAE7164B00221A701C4B1B789D
:101980001C4A13708DF804301B4B1B788DF8053002
:10199000029401A9124B187801F0F5FC174B1C605A
:1019A0000E4B1B7833B9074B00225A70144A137838
:1019B0000133137005B030BD160400203CFA000856
:1019C0003E000020600600208C060020A80D0020AC
:1019D000E8020020F4060020D8060020A00600201F
:1019E00034040020F0060020B80200200807002080
:1019F000DC020020E7020020E5020020D4020020E3
:101A0000DD02002010B5154804F028F80022144B20
:101A10001A70144B144909781970144991F921006E
:101A2000D87091F82D1019741149097859749A7465
:101A3000DA74104B1B78022B0CD00A4C0E4A21464C
:101A40000E4B187801F0E5FC084BD968A07CFEF736
:101A50004FFF10BD0A4B1B6B9847EEE7F4060020C2
:101A6000C1060020C4060020DC020020E40D002096
:101A7000C006002016040020780600203404002050
:101A80003CFA00082DE9F04188B00C461546BDF837
:101A90003820002104919C4E31809C4E31701E46AE
:101AA000A3B1D2B29A4B1A7001789A4B197003788D
:101AB0005B09072B00F27381DFE813F00A00710164
:101AC0004D0071014A007101710162010A46E8E7A7
:101AD0008D4D01232B808F4C08228F4B1968601C81
:101AE00007F077FF2888083080B2288008228B4BC7
:101AF0001968204407F06DFF2B8808332B80884B32
:101B00005B69984780B2874B18802A88531C9BB228
:101B1000A054591C89B22980000AE05404AB824ABF
:101B20001268C9B2204601F087FB049B29884A1C31
:101B300092B26354180A511C89B2A054180C4A1C62
:101B400092B260541B0E511C2980A3540020D6E091
:101B50006E4B01221A70754B1B78002B00F021810F
:101B600001238DF814302378C3F3C0138DF815309A
:101B70006F4B1A6806926F4A92F901108DF81C108B
:101B800092F900108DF81D1092F82C108DF81E108F
:101B900000931346013205A96748007801F01EFC46
:101BA000237860F386132370644B1B7833B1634B47
:101BB00000221A70237843F020032370604B1A68C8
:101BC000544B5A70110A9970110CD970120E1A7177
:101BD00022785A715B4A12689A71120ADA715A4F66
:101BE0003B78DFF8748198F8002058495848184429
:101BF00007F0E5FE397898F800301944C9B2397019
:101C00002EB3434B1B7813B3524B1B7853B30F299E
:101C100017D82378C3F303020A4462F30303237043
:101C20003C4A53710824002307E0621C4848C75C03
:101C30003848075501339BB2D4B28AB29A42F4D8DD
:101C400013E0334B19700025414E08240DE059B1C3
:101C5000404B1B78002B55D02D4B197000253C4E66
:101C6000082402E0082400E008243A4B00221A70FD
:101C7000364A3748FEF70AFF374B187010B1354B1C
:101C800001221A70CEB1224B1978B1B1671CFFB294
:101C9000204B1D55002D63D100222B4B1A701D4B7C
:101CA0003B440293274B1B6801930092244B1B6813
:101CB0002A4A304601F04AFA3C46154B197821442D
:101CC000114E3180134D04AB02931E4B1B680193E0
:101CD000002400941A4B1B68204A284601F0F0F9B2
:101CE000049A3388EA54100A591C6854100C991C41
:101CF0006854120ED91C6A5404333380204608B04D
:101D0000BDE8F0810824B0E704040020A00600200C
:101D10003C05002004030020EC02002010040020F9
:101D20003CFA000814040020F0020020E502002024
:101D3000CC020020E40D0020340400201C07002009
:101D40000C04002038070020C0050020C405002036
:101D50004005002045060020440600202004002005
:101D6000124B3B440293124B1B68019300230093D8
:101D7000104B1B68104A304601F0E8F93C469CE7DE
:101D80008EB10AB90020BAE731460C4807F017FEB9
:101D90000B4B1B7801330B4A13800020AFE7022066
:101DA000ADE70720ABE70020A9E700BF0403002050
:101DB000380700200C040020F40200200503002056
:101DC0003C050020040400202DE9F04186B0804647
:101DD00000258DF807508DF80800204C94F901304B
:101DE0008DF8093094F900308DF80A30236B039395
:101DF000636B04931A4E3388ADF81430194F3B4689
:101E00000DF1070202A91848007801F00CFB174AEF
:101E100001215170164B5970617899709DF8071027
:101E2000D970C3F81080396899605160114C4FF433
:101E30007A71204603F060FE204603F0B1FD0E4BA0
:101E40009B6A31780D4898470D4A136843F00103A7
:101E50001360284606B0BDE8F08100BFE40D002005
:101E60000404002034070020340400208C060020E5
:101E700060060020480600203CFA00080403002009
:101E80003805002070B586B000230593474B1B78BA
:101E9000FF2B00F0878013B9454B00221A600446DF
:101EA000444B1878FEF736FE414B1A680292424ABC
:101EB00092F901208DF81020404A12788DF81220F6
:101EC0003F4A12788DF811203E4A1268039200931F
:101ED00005AB3D4A02A93D48007801F0F7FA0346F8
:101EE000A0B10B2843D1002C41D0059909B900239A
:101EF0003DE0374A136843F010031360354C204629
:101F000003F0FAFD204603F04BFDF0E72F4D2E784D
:101F1000294C94F9213094F9012094F82D10304681
:101F200001F0EAFA2C4B00936368227A41B2304602
:101F300001F062FA294B00936368227A94F9281021
:101F4000287801F059FA1E4B1B789BB9A3692249E6
:101F5000C9680B4422490B60E369204AD2681344E4
:101F6000204A1360184B1878FFF72EFF03461846D7
:101F700006B070BD1C4B1A780F4B93F901101B4B28
:101F80001878FEF7FFFD78B10B4A13691249C9684A
:101F90000B4413490B605369104AD2681344114A29
:101FA0001360DFE70923E2E70823E0E75C0600208F
:101FB000D8020020E7020020E40D0020E402002007
:101FC000E5020020D4020020DC02002034040020BE
:101FD0003805002020070020C4060020DC06002071
:101FE000D8060020F0060020C00500203C05002097
:101FF00030B585B000252C4665F3030404F08F044A
:102000000D4D2D7865F3C7148DF80C4000931346E1
:102010000A4603A9FFF736FD034610B1184605B07E
:1020200030BD064B58711871054A1268DA60FFF727
:1020300029FF0346F2E700BFD0020020600600201F
:102040003807002008B5064803F008FD054A136864
:1020500023F0100313600120FFF714FF08BD00BF39
:10206000200700203805002010B582B0774803F023
:10207000F5FC774B1B7813F0200F00F02281754A96
:10208000126812F0400F03D022F0410271490A6039
:1020900013F0090019D0704A5278022A05D06F4A0D
:1020A0005278022A01D0002110E06A490A6822F021
:1020B00001020A6000216A4A1170674A694C24785B
:1020C000547111719160012100E00021664A12787B
:1020D000002A39D1002937D1002835D013F0080F54
:1020E0000FD05E4A127862B95C4B5B781BB95F4ACD
:1020F00013605F4A1370574A136823F0010313609B
:1021000022E05C4A92F82010594A1278914202D992
:1021100013F0020F62D013F0020F06D1504B0022D1
:102120001A70554A136801331360514B00221A701C
:10213000524B1B781BB94D4A136801331360454A53
:10214000136823F001031360414B1B7813F0020F57
:102150001DD0414B1B792BB9424B1A78484B1B7849
:102160009A4214D90023474A13703F4A1370434BD5
:102170001B781BB93D4A136801331360394B1A7839
:10218000354B5A71334A136823F0010313603D4BFA
:102190001B78002B00F095802E4B1B6813F0100F5E
:1021A00040F08F80374B00221A702E4B1B78344A38
:1021B000127893426AD2082B68D80133DBB2294ADD
:1021C000137013F0010F11D10120FFF75BFE00BB6C
:1021D0001F4B1A786FF345121A7072E01C4B1A7875
:1021E0006FF345121A70FFF72DFFADE71E238DF830
:1021F0000430204C94F82C308DF8063094F90130DE
:102200008DF8053001A9204B187801F0B3F8607003
:10221000DAE7114B09225A70002211490A700D4861
:10222000016821F0010101600F490A701A710D4A1D
:1022300012785A710F4A52789A70104B1B78002B03
:102240003FD10A4A1368013313603AE04806002080
:10225000A80D002038050020600600208C06002014
:10226000C00500203D000020A00600203807002007
:10227000DD020020E40D0020CC020020E602002058
:102280003C000020B4020020340400200121464B11
:10229000187801F080F8454A136823F001031360B1
:1022A0000023434A1370434A1370434A1371434B4C
:1022B0001B785371424B1B781BB9424A1368013398
:1022C00013603A4B1B6813F0020F03D023F0020394
:1022D000364A1360354B1B68002B57D13A4B1B789D
:1022E00013F0010F09D0384B1A786FF300021A70FF
:1022F000364B1B681B6830489847334B1B7813F0EC
:10230000080F09D0304B1A786FF3C3021A702F4BA5
:102310001B689B682E489847FEF7F8FA002832D1D0
:10232000294B1A786FF345121A70274B1B7813F05C
:10233000020F17D0244B1A786FF341021A70254B05
:102340001B78022B2CD0204B1B7813F0040F04D1E8
:102350001E4B1B685B68204898471B4B1A786FF32D
:1023600082021A70184B1B7813F0100F09D0164B0D
:102370001A786FF304121A70144B1B68DB68174845
:10238000984702B010BDFEF7CBFAC9E7144C4FF4E2
:102390007A71204603F0B0FB204603F001FBC4E74E
:1023A000FFF7ACF9CFE700BF340400203805002068
:1023B000C0050020A0060020600600203D0000208F
:1023C000E602002038070020A80D0020300400207D
:1023D0008C060020160400207406002098060020B9
:1023E0004806002010B584B0144B1B788DF80030DF
:1023F000134B93F901208DF8012093F900208DF8FB
:1024000002201A6B01925B6B0293ADF80C006946D7
:102410000C4B187801F068F80B4C4FF47A71204699
:1024200003F06AFB204603F0BBFA084A136843F046
:1024300001031360002004B010BD00BFDC020020C7
:10244000E40D002034040020480600203805002058
:1024500010B50C460A4BDB6B51B20246204698473A
:10246000084C4FF47A71204603F046FB204603F0F7
:1024700097FA054A136843F001031360002010BD6A
:102480003CFA00084806002038050020002800F02B
:102490000581F0B583B004460068002800F0008193
:1024A0006068002800F0FE80A068002800F0FC8032
:1024B000E068002800F0FA8017460D46104600F04C
:1024C00053FF002800F0F4807A4B1C607A4B1D60AB
:1024D0007A4D2F7000267A4B1E707A4B1E707A4B05
:1024E0001E607A4B1E707A4B1E607A4B1E600B2367
:1024F0008DF8043001A9384600F03CFF801B18BF5E
:102500000120754B187008238DF8043001A9287834
:1025100000F030FF714C207005238DF8043001A9C4
:10252000287800F027FF60700C238DF8043001A993
:10253000287800F01FFFE0600D238DF8043001A91A
:10254000287800F017FF20610E238DF8043001A9D0
:10255000287800F00FFF60610F238DF8043001A987
:10256000287800F007FFA06110238DF8043001A93E
:10257000287800F0FFFEE06113238DF8043001A9F4
:10258000287800F0F7FE84F8210014238DF8043039
:1025900001A9287800F0EEFE606215238DF8043062
:1025A00001A9287800F0E6FE84F828001A238DF8A7
:1025B000043001A9287800F0DDFE84F82C001B23EC
:1025C0008DF8043001A9287800F0D4FE84F82D009D
:1025D0001C238DF8043001A9287800F0CBFE20637D
:1025E0001D238DF8043001A9287800F0C3FE606334
:1025F0003146287800F0CFFE012584F820500A21CA
:10260000616006222272364B59601A72E268DA6003
:1026100022691A6162695A61A2699A61E269DA61A2
:1026200083F82050FEF7DAFA2E4C2F49204603F0AB
:10263000ABF94FF47A71204603F05EFA2B492C482F
:1026400003F0A2F92B492C4803F09EF92B492C48A2
:1026500003F09AF92B492C4803F096F903F054FA49
:102660002A4B18602A482B4B03602B4B83602B4B63
:1026700003612B4B43602B4BC3602B4C2368984763
:102680006369984707F088F9284B1D70A36D2846A9
:102690009847E36A9847304603B0F0BD032070477F
:1026A0000320F9E70320F7E70320F5E70320F3E72A
:1026B0000A20F1E730040020080400203404002040
:1026C000A80D00201604002038050020C0060020B8
:1026D000D4020020D8020020E4020020AC0D00202B
:1026E000E40D00204806002069200008452000086D
:1026F00020070020051A0008F406002079160008BB
:10270000080700200D0D0008B80200201804002062
:10271000A4060020B1180008AD1000080118000838
:10272000C1170008111700083CFA0008A106002094
:10273000F0B589B0324B93F901208DF80F2093F951
:1027400000308DF80E302F4B1C782F4B1B781C441B
:10275000002950D0E4B20D46074600238DF814300E
:102760002A4B1B788DF81530294B1A680692294E92
:1027700096F901208DF81C2096F900208DF81D2077
:1027800096F82C208DF81E2000930DF10E030DF10C
:102790000F0205A92048007800F020FE96F82C30A2
:1027A0008DF812309DF80F308DF8113009238DF817
:1027B00010301A4B1B7813B10A238DF8103004A97E
:1027C000154B187800F0D6FDC0B26870A0420BD34C
:1027D000031B2B7022469DF90F103846FEF7D2F9E5
:1027E00058B1002009B0F0BD28700024054B1C70C2
:1027F000054B1C70EEE70320F4E70820F2E700BF6A
:10280000AC0D0020C005002044060020D0020020AE
:10281000CC020020E40D002034040020C00600207B
:10282000002800F0DF8010B582B0044603781E2B2C
:1028300000F2DA80DFE813F01F0025002A002F00E5
:10284000340039003D00410046004B0056005E0058
:10285000710066007C00820087008C009100960069
:102860009B00A100AD00A700B300B800BD00C200EE
:10287000C700CC00D1005D4B1B780371002002B073
:1028800010BD5B4B1B7803710020F8E7594B1B7898
:1028900003710020F3E7584B1B6843600020EEE70C
:1028A000564B1B6843600020E9E7554B436000200E
:1028B000E5E7544B43600020E1E7534B1B7803717D
:1028C0000020DCE7514B1B7803710020D7E7192368
:1028D0008DF8043001A94E4B187800F04BFD606074
:1028E0000020CCE704344B4B93E8030084E803005A
:1028F0000020C4E70434484B93E8030084E8030055
:102900000020BCE717238DF8043001A9404B18784C
:1029100000F030FD60600020B1E716238DF8043030
:1029200001A93B4B187800F025FD60600020A6E768
:102930003A4B93F8203003710020A0E7374BDB6857
:10294000436000209BE7354B1B694360002096E7FE
:10295000324B5B694360002091E7304B9B694360D9
:1029600000208CE72D4BDB694360002087E72C4B70
:1029700093F901300371002081E7284B93F901306E
:10298000037100207BE7264B93F900300371002090
:1029900075E7224B93F90030037100206FE7214B5C
:1029A0001B68436000206AE71F4B1B6843600020E0
:1029B00065E71E4B1B684360002060E7174B5B68B0
:1029C000436000205BE7154B1B7A0371002056E73C
:1029D000124B5B6B4360002051E7114B5B6B436014
:1029E00000204CE703207047022048E7160400202F
:1029F000E5020020D00200201C0400200C0400206E
:102A000020040020F4020020A1060020C0060020BF
:102A100034040020080E0020D00D0020E40D00201A
:102A2000AC0D002038070020E00200209C060020AA
:102A3000002800F0AB8110B586B004469E4B1B68A1
:102A400013F0010F40F0A48103781E2B00F2A38144
:102A5000DFE813F01F00410046004B005000550016
:102A60005F0069007100A1017600AB00D400C500D1
:102A7000E300EE00F300F800FD00020107011A0177
:102A8000680156017A017F01A10184018B01920145
:102A900097010379894A13701BB1022B06D00020DD
:102AA00077E1874BDB6A9847002072E10024854B71
:102AB0001C70834BDB6A98478349844B00934B68B7
:102AC0000A7A91F928108248007800F095FCFEF708
:102AD00015FE20465DE102797E4B1A70002058E118
:102AE00002797D4B1A70002053E142687B4B1A60DB
:102AF00000204EE142687A4B1A60002049E14168AB
:102B0000002900F04A811022764806F058FF002084
:102B10003FE14168002900F042811022724806F02E
:102B20004EFF002035E10079704B1870644B9B6DAF
:102B3000984700202DE102796D4B1A70002028E1A2
:102B400090F908308DF80C305F4B93F82D308DF8EC
:102B50000D30062203A95E4B187800F024FC0028F3
:102B600000F01F81634B043494E8030083E8030002
:102B7000524B1B78022B01D000200AE1554B1B78E9
:102B8000002B00F010814E4BDB6A98474E494F4BAB
:102B900000934B680A7A91F928104D48007800F0AC
:102BA0002BFCFEF7ABFD0020F3E090F908308DF828
:102BB0000C30454B93F82D308DF80D30062203A9CB
:102BC000434B187800F0EFFB002800F0EE804A4BF2
:102BD000043494E8030083E803000020D9E043684C
:102BE000049301238DF8143004A9394B187800F0B0
:102BF000ECFB002800F0DB800020CAE0436804936F
:102C000000238DF8143004A9314B187800F0DDFB57
:102C1000002800F0CE800020BBE00279531EDBB21A
:102C20000E2B00F2C880284B83F820200020B0E053
:102C30004268254BDA600020ABE04268224B1A6103
:102C40000020A6E04268204B5A610020A1E04268C3
:102C50001D4B9A6100209CE042681B4BDA6100200A
:102C600097E090F904308DF80C30052203A9184B39
:102C7000187800F098FB002800F09F809DF90C2048
:102C80001E4B5A70002084E090F904308DF80C300F
:102C90000D4B93F82C308DF80E30042203A90C4B09
:102CA000187800F080FB002800F089809DF90C2046
:102CB000054B5A7000206CE03805002016040020F7
:102CC0003CFA0008A0060020E40D0020DC060020ED
:102CD00034040020E5020020D00200201C04002063
:102CE0000C04002020040020F4020020A106002093
:102CF000C0060020080E0020D00D0020AC0D0020E2
:102D000090F904308DF80C30082203A92F4B187865
:102D100000F049FB002854D09DF90C202C4B1A7070
:102D2000002036E090F904308DF80C30072203A91A
:102D3000264B187800F037FB002844D09DF90C2072
:102D4000244B1A70002024E04268234B1A600020B4
:102D50001FE04268214B1A6000201AE043681C4AB9
:102D600053601C4A5360002013E00379184A137221
:102D7000184A137200200CE04268164B5A63002078
:102D800007E04268124B5A63002002E003207047BC
:102D9000012006B010BD0220FBE70320F9E7032065
:102DA000F7E70320F5E70020F3E70320F1E703202E
:102DB000EFE70320EDE70320EBE70320E9E703203B
:102DC000E7E70320E5E70320E3E700BF3404002042
:102DD000AC0D0020E40D002038070020E0020020A8
:102DE00000287ED030B583B00446434B1B6813B136
:102DF000012003B030BD414D0C220021284606F0D1
:102E0000F4FD01236B702378032B68D8DFE803F00F
:102E100002374F5A384B1B6813F0100F63D16368A9
:102E2000002B62D0A368002B61D0E368002B60D038
:102E3000FDF7D4FE324A137843F00803137022786A
:102E40002E4B1A7062682F4B1A60A2682E4B1A60C4
:102E5000E2682E4B1A6094F910102D4B187800F090
:102E600024FB2C4B587000210B4661F347138DF85F
:102E700004300B460A4601A8FFF7BAF80CE0204AD6
:102E8000137843F00803137022781C4B1A70002249
:102E900011460220FDF752FD0028AAD000211E4B4A
:102EA0001970174B1A7861F3C3021A70A1E7134A1D
:102EB0001370134A137843F008031370A088FFF7C8
:102EC00091FAE9E70D4A13700D4A137843F00803AD
:102ED0001370227BA168A088FFF7BAFADCE7022012
:102EE000DCE703207047012083E7032081E703200C
:102EF0007FE703207DE700BF380500208C06002017
:102F0000A80D002010040020EC020020F002002098
:102F100034040020E40D0020A0060020002800F06A
:102F20009F802DE9F04385B000270446514B1B6874
:102F300023B10123184605B0BDE8F08339468DF86A
:102F400008704D4D1422284606F04FFD01236B708A
:102F50004A4A13702378012B5AD05AB2002A45D01E
:102F6000032B68D03D463E46B9464846FDF7CCFDAA
:102F7000002878D001238DF80C30414B93F82C3089
:102F80008DF80E3003A93F4B187800F0F3F9B042EA
:102F900038BF304640B2002D67D03B4B1B789BB901
:102FA0008DF80400364B93F82C308DF8063004224F
:102FB0000DEB0201334B187800F0F5F9002856D0DC
:102FC0009DF904202E4B5A703B464246494602A8C2
:102FD000FFF70EF8034600283ED12178264A1170EB
:102FE0002A490A7842F001020A70A3E70125284B1A
:102FF0001D709DF80830022262F347138DF80830E7
:1030000094F80490D4F80880A78994F90E60ACE78E
:10301000E27B1F4B1A709DF80830042262F34713BD
:103020008DF8083094F80490D4F80880A78994F9B2
:103030000E60012599E70125154B1D709DF808309C
:1030400043F0E0038DF80830D4F80480278994F920
:103050000A604FF0000988E70E4A0021117069E705
:10306000032318467047032364E7022362E7032320
:1030700060E700BF38050020600600203D0000200A
:10308000E40D002034040020D0020020A80D002010
:103090003C000020A006002010B582B004468DF848
:1030A00004000B2201A9044B187800F07CF908B148
:1030B000024B1C7002B010BD34040020E40200205A
:1030C0002DE9F04106460D461746079A1C4C9DF81F
:1030D00018106171A371190AE171190C21721B0E8C
:1030E0006372A272130AE372130C2373120E6273DB
:1030F000E573DFF85480404601F0EAFC394640466B
:1031000001F0F5FC10222146404601F0F8FCEAB23D
:103110003146404601F0F3FC0A4C4146204601F09E
:103120004EFDE278A3781B0443EA0263627843EA27
:10313000022322781343089A1360BDE8F08100BF90
:1031400040000020480900203C0700202DE9F047FE
:1031500005460F4692469846099C0A9EDFF8B490B1
:10316000F0220021484606F040FC4A461021504615
:1031700001F002FC264B9DF820205A7183F806804E
:103180004FEA1822DA714FEA18421A724FEA1868A9
:1031900083F809809C72220ADA72220C1A73240EB8
:1031A0005C734FF00108002403E0103FBFB21034FD
:1031B000E4B20F2F16D9164880F80F8008F10108E5
:1031C0001FFA88F8134A144901F058FC00230F2B0A
:1031D000EBD8E1186A5C1048C05C4240725401337D
:1031E0009BB2F4E70FB9BDE8F087094880F80F807B
:1031F000084A094901F042FC00239F42F3D9E11833
:103200006A5C0548C05C4240725401339BB2F4E7EB
:1032100050000020540800205809002010B584B048
:10322000089C0294079C01949DF818400094FFF7B5
:103230008DFF04B010BD00002DE9F04104460F469B
:1032400090461E460F4D284601F042FC4146284656
:1032500001F04DFCFAB22146284601F050FC0A4C20
:103260002946204601F0ABFCE278A3781B0443EA30
:103270000263627843EA0223227813433360BDE895
:10328000F08100BF3C070020480900202DE9F041F3
:1032900005460F4690461E460D4CF0220021204662
:1032A00006F0A3FB22461021404601F065FB2246B2
:1032B0003146284601F0E2FB0F2F01D8BDE8F0812E
:1032C000224606F1100105F1100001F0D7FBF5E7E9
:1032D00054080020F0B587B007460E461D46ADF8ED
:1032E0000620204CF0220021204606F07EFB2246DC
:1032F0001021384601F040FB1022002102A806F000
:1033000074FB01238DF80830062231460DF10900C7
:1033100006F055FB02220DF106010DF10F0006F03B
:103320004EFB2246294602A801F0A8FB10220021EC
:1033300002A806F05AFB02258DF8085006223146F5
:103340000DF1090006F03BFB2A460DF106010DF1D7
:103350000F0006F034FB22460C9902A801F08EFB08
:1033600007B0F0BD54080020052801D000207047A8
:1033700001207047052801D00020704708B5084695
:1033800000F0ECFB08BD052800D0704708B50846E2
:1033900000F044FC08BD052800D0704708B5084679
:1033A00000F050FC08BD052801D00020704708B58A
:1033B0000846114600F07EFC08BD052800D0704785
:1033C00008B5084601F050F808BD052801D00020D6
:1033D000704708B5084600F0A3FC08BD052801D0D9
:1033E0000020704738B51D4614460846049B2A46FF
:1033F000214600F0AFFC38BD052800D0704738B535
:103400001D4614460846049B2A46214600F0E0FC6F
:1034100038BD052801D00020704708B50846114680
:1034200000F00EFD08BD052801D00020704710B542
:10343000144608461A46214600F07AFD10BD0528BC
:1034400001D00020704730B583B01D4614460846B1
:10345000079B0093069B2A46214600F0EDFD03B032
:1034600030BD052801D00020704708B5084600F09F
:1034700097FE08BD052801D00020704708B5084612
:1034800001F02FF808BD052801D00020704708B5CD
:10349000084600F0A5FE08BD052801D000207047B1
:1034A00008B5084600F0A0FE08BD052801D00020A0
:1034B000704708B5084600F0BDFE08BD052800D0DD
:1034C000704708B5084600F0B7FE08BD052801D0D2
:1034D0000A20704738B51D4614460846049B2A4604
:1034E000214600F0C9FE38BD052800D0704708B558
:1034F000084601F021F808BD052801D0D0B2704778
:1035000010B5144608461A46214601F041F810BD90
:1035100010B404460023184601E00133DBB28B42AD
:1035200006D201229A40A243F7D1421CD0B2F4E75E
:1035300010BC7047064B984205D9064B984204D8F8
:103540004FF47A7070476420704742F210707047F1
:103550007FEE36007F3F5C02884203DB904203DD52
:103560000020704700207047012070472DE9F04788
:1035700082460E469046DDF824909DF9202019469B
:103580004046FFF7E9FF38B300252F461EE001341F
:10359000E4B20F2C16D836F81530234113F0010F82
:1035A000F5D03B1903EB43039A004A44117A0A0908
:1035B00001F00F014046FFF7CFFF0128E7D10120BE
:1035C000BDE8F0871037FFB20135EDB2574501D2A3
:1035D0000024DEE70020F3E70020F1E710B40C0937
:1035E000B4EB121F0FD891420FD201F00F0101234B
:1035F00003FA01F130F8142022EA010120F8141036
:10360000184610BC70470020FBE70020F9E7F8B52A
:1036100078B10C46164607460025B4420AD210215E
:1036200037F81400FFF774FF0544EDB20134E4B23B
:10363000F3E700252846F8BD70B110B4044649B13F
:103640000023934206D231F8130024F8130001330B
:10365000DBB2F6E710BC7047704708B18A6070476C
:103660008A604A6070472DE9F84F07460D4690463C
:103670001E4600244FF0FF3A1CE008EB0419D9F86D
:10368000040002F045FA8346FDB90020834521D8A5
:103690002DBB0020D9F80C30834202D80023C9F892
:1036A0000C30D9F80C301BB11B1A9A4528BF9A462A
:1036B0000134E4B2B4423AD2002FDED0A5B908EB0F
:1036C00004130020D8608246F2E7D9F8080002F01F
:1036D0001FFADBE7D9F8040002F01AFADAE7D9F8A2
:1036E000080002F015FAD5E708EB0419D9F80CB078
:1036F000D9F8080002F00CFA834502D80023C9F873
:103700000C30D9F80CB0BBF1000FD1D0D9F80800BB
:1037100002F0FEF9ABEB00005045C9D2D9F80CA07D
:10372000D9F8080002F0F4F9AAEB000AC0E7504605
:10373000BDE8F88F0378032B01D000207047437851
:1037400003F00F028A701B094B7083788B80C2785C
:1037500043EA02238B800379C3F30212CA7003F099
:103760000F030B70052070472DE9F04F85B004461C
:103770008A4691469B46057890F9028090F903604D
:1037800090F90470437863B9B0F9022040F60F73E2
:103790009A4202D090F90770002594F9058094F9B7
:1037A00006605DB9072D2BD08AF8008089F800608B
:1037B0008BF80070284605B0BDE8F08F636901936F
:1037C00094F91130009394F910304246E168207A60
:1037D000FFF7CCFE08B905F0FD0594F91930039305
:1037E00094F918201C4619463046FFF7B5FE00280C
:1037F000D8D1B44202DC05F0FB05D3E7039ED1E744
:10380000002FD1D10127CFE770B50E46012303FA6F
:1038100000F00AF0C7FF04460D4630460AF0B2FF3A
:1038200002460B46204629460BF050F90022024B77
:103830000BF022F870BD00BF00408F4008B50AF0C1
:10384000A1FF02460B46002001490BF03FF908BDDD
:10385000000020402DE9F84304460D4616461F4659
:10386000101F40000AF09EFF22462B460BF004F882
:103870008046894678000AF085FF42464B460AF0AA
:1038800045FE22462B460BF021F9804689460AF078
:10389000E7FC0BF0B3FA3746B0422DD8099B1F6006
:1038A0000022194B204629460AF0E6FF8046894649
:1038B00038460AF067FF22462B460AF0DDFF002259
:1038C000124B0AF0D9FF02460B46404649460AF021
:1038D0001BFE04460D4608980AF054FF02460B46AC
:1038E000204629460AF010FE0AF0BAFC0BF05EFAF8
:1038F0000A9B1860BDE8F883404649460AF0B0FCD0
:103900000BF07CFA0746C9E7000010400000E03FDA
:1039100038B50D46144640000BF096FB014628468C
:103920000BF0E0FA21460BF0DDFA0AF04DFF0AF049
:103930001BFD0BF03BFA40B238BD70B50268C37A8C
:1039400003EB430399000A44557A43682D015A1941
:103950005E5B0023D360437AC3B90446C068FFF7B7
:10396000E9FDB04238BF304680B2A37A33B9237A3A
:1039700023B963681D440023EB6006E02269636895
:103980001D44013802FB00F0E86070BD837A3BB152
:10399000026943681D44701E02FB00F0E860F4E712
:1039A00043681D440023EB60EFE7884204D0C0B2B7
:1039B0000138C0B240B27047C8B2FBE7074B53F8BA
:1039C0002030074A934204D0064A934203D0002095
:1039D0007047012070470220704700BFF8F50008CB
:1039E00090D0030020A107008842B8BF0846704766
:1039F00038B504460D461C4B1B6A9847024630B149
:103A00001A4B23441A498B4203D802232B701046C9
:103A100038BD184B234418498B4202D800232B7021
:103A2000F5E7164B234416498B4202D801232B702D
:103A3000EDE7144B234414498B4202D802232B7028
:103A4000E5E7124B234412498B4202D803232B7023
:103A5000DDE7104B234410498B4202D804232B701E
:103A6000D5E70022D3E700BF3CFA000840AA8FCC7C
:103A70007F841E00C02571CCC0C62D00FF5E43CCE4
:103A8000BF270900A0B038CC20A1070040022ECCEF
:103A900090D00300606E29CCE09304002DE9F04F34
:103AA00083B08346009116461F460025A84601951F
:103AB000AA46B8F10F0F47D90E9B019A1A705046CB
:103AC00003B0BDE8F08F019B0133DBB201930134F9
:103AD000E4B20F2C3AD836F81530234113F0010F19
:103AE000F5D008EB040303EB43039A0007EB02094C
:103AF000BB58002BEBD0BBF1000F05D1072343FAD5
:103B000004F111F0010FE2D099F8082042F303010B
:103B100042F3031252B249B29DF90000FFF71CFDB7
:103B20000028D4D099F809300C9A02EB0313DB6813
:103B3000002BC8D10AF1010308EB04020D9901F82A
:103B40000A205FFA83FAC2E70024C2E708F11008EE
:103B50005FFA88F80135EDB2ABE7000008B5024620
:103B600000201378093B152B11D8DFE803F011165C
:103B70001B1D202326292C2F103710393B3D3F10C9
:103B80001041440B002192F90100FFF70EFF08BD20
:103B900092F90130194AD05CF9E792F90130184ADC
:103BA000D05CF4E70120F2E740F6B830EFE74FF4DD
:103BB0007A70ECE74FF4FA60E9E741F28830E6E723
:103BC00041F27070E3E74FF48040E0E74FF47A7120
:103BD0000C4805F0E7FE00F5FA60D8E70A48D6E79A
:103BE0000A48D4E70A48D2E71020D0E70948CEE7D0
:103BF0004FF08340CBE70848C9E700BF20F6000834
:103C000028F6000818FCFFFF08E6D3332C0A002032
:103C1000280A0020680900209A99094008B503780D
:103C200003EB43039A00054B1344597A4268044B53
:103C300003EB01114078FFF710FD08BD6809002073
:103C40006000002038B501281FD043B213B102280C
:103C500022D038BD134B144C94E8070083E80700CA
:103C600003F10C0504F10C0207CA85E807001833BC
:103C7000183494E8070083E807000C4907230B80F9
:103C800001220B48FFF7D8FCE3E7084B1B88084AE2
:103C900011880B431380DCE7012204490448FFF735
:103CA000CBFCD6E768090020D4F50008280A0020DC
:103CB0002C0A002008B5043907292FD8DFE801F0C5
:103CC00006101A24242E2E04012008E007220021C9
:103CD00090F90000FFF740FC003018BF012008BD3C
:103CE0000522002190F90000FFF736FC003018BFD4
:103CF0000120F4E70722002190F90000FFF72CFCD7
:103D0000003018BF0120EAE70722002190F90000E7
:103D1000FFF722FC003018BF0120E0E70020DEE7BB
:103D200008B503791BB1012B08D0002008BD012282
:103D300001680648FFF780FC0120F7E701220168CF
:103D40000348FFF779FC0120F0E700BF2C0A0020B0
:103D5000280A00202DE9F04182B004468846174623
:103D600090F9080094F9096062681A60657815B1E5
:103D700040B900251D6088F800003E70284602B05A
:103D8000BDE8F0813F2A1ED900265F2AF3D902F050
:103D90001F02012AEFD11E238DF804308DF8050093
:103DA000A37A8DF8063001A8FFF7D8FE40B20028AC
:103DB000E1D12578002DDED0044A138843F00703B3
:103DC00013800025D7E70025DFE700BF2C0A00207D
:103DD0002DE9F04385B0884691461C460728A8BFC8
:103DE000072005465870FFF7E9FDA070072D1AD08F
:103DF000104B53F82510104B585DFFF705FD064694
:103E00000F460E4BDB6D984704F10C030293083408
:103E1000019400904B46424630463946FFF71AFD62
:103E200005B0BDE8F083044B585DFFF707FD06467B
:103E30000F46E6E7F8F5000818F600083CFA000817
:103E40002DE9F0438BB004460F4690F901604568B8
:103E5000314B5B68984700285CD1E37C53B92178EB
:103E60002E4A4B005D18A800054610582A44556894
:103E700005B905462A4B13F90680274BDB6828460F
:103E80009847072E25D0244BD3F81890A37C09938C
:103E90000125089500230793069305930493039344
:103EA000228902920822019200932B464246A17871
:103EB0002846C8472846637C4BB31A4B995D164B7E
:103EC0005B6D0D31C9B298473E7001200BB0BDE863
:103ED000F083114BD3F81890A37C09930025089523
:103EE000079506950123059304950395238902936D
:103EF000052301930C4B00932B464FF47A7202FB7F
:103F000008F24CF250312846C8472846D3E7074B01
:103F1000995DD4E70020D9E73CFA00086809002041
:103F200018F6000828F600088545010020F600086C
:103F30002DE9F04F8DB004460F46904690F9019060
:103F4000384B13F909A00378374D03EB43039A006C
:103F50002A44537A354901EB0311354B4A4691F90E
:103F6000021090F90200FFF73FFD06464846FFF7B2
:103F700025FD8146A26861683046FFF7C9FC0B90B9
:103F80002C4BDA68237803EB430399006858904779
:103F900094F90130072B28D0264BD3F81CB040F6FB
:103FA000B8330893002207920692059201250495E2
:103FB0000392082302930195CDF800A04B460B997C
:103FC0002846D847DFF86C90D9F85430217B284632
:103FD0009847D9F82430217B28469847C8F8000034
:103FE0003E7001200DB0BDE8F08F124BD3F81CB02D
:103FF0004FF47A7303FB0AF340F6B83208920025B7
:1040000007950695059501220492039505220292D3
:10401000019500934B4646F2A8120B992846D847C3
:10402000D0E700BF18F600086809002060000020F3
:104030002C0A00203CFA00082DE9F0438DB005461B
:10404000894690461F460024ADF82640072628E002
:10405000002307260EE003EB430082004E488258FF
:1040600032B101229A40BDF826000243ADF8262065
:104070000133DBB20F2B14D80629ECD0BDF8262073
:104080001A4112F0010FF3D003EB430082004248C3
:104090008258002AECD106F0FE06E9E7062600E089
:1040A00006262B79A34218D928680AA92044FFF7CD
:1040B00041FB90B10444E4B2BDF82C30ADF8263099
:1040C0009DF82B1009B9002BE8D04B1EDBB2042B56
:1040D000E6D90629BCD90626E3E701238DF820306E
:1040E0006B798DF8223008A8FFF738FD8DF8046051
:1040F000AB798DF805309DF929308DF806309DF9A2
:104100002A308DF807309DF828308DF8083095F961
:1041100007308DF8093095F908308DF80A3095F997
:1041200009308DF80B3010238DF80C300DF126037B
:1041300004938DF8140007238DF81530164A069263
:104140008DF81C3000238DF81D300AAB0DF12A02CA
:104150000DF1290101A8FFF707FB0546072810D03C
:104160009DF9293089F800309DF92A3088F800300F
:104170009DF828303B70149B1C7028460DB0BDE89C
:10418000F083064E02220021304605F02EFCBDF8D9
:1041900026303380E4E700BF680900202C0A0020A5
:1041A00038B505460D4B1B6A40689847A0B10724F7
:1041B0000722002195F90000FFF7CEF908B904F0B5
:1041C000FD040522002195F90100FFF7C5F908B9A2
:1041D00004F0FB04204638BD0624E9E73CFA000859
:1041E0004FF0FF307047000010B582B00446002346
:1041F0008DF807300DF107014068FFF7F9FB68B152
:104200000320237803EB43018A0009498A580AB93D
:1042100000F0FD00032803D002B010BD0220F0E73B
:10422000616803EB43039A00014B13445960F3E7C1
:10423000680900207047000000B587B00C4B01935F
:104240000C4B029343788DF80C3003788DF80D30C9
:1042500083788DF80E30C3788DF80F30436804935F
:104260008368059301A8FFF768FB07B05DF804FBBE
:1042700068090020600000202DE9F0418AB0044662
:104280000F461646984600218DF827100591069195
:104290000791089101222948FFF7B9F920B9274A67
:1042A000138843F0070313802568606801F030FC31
:1042B000854227D80023C8F80030DFF8888005231E
:1042C0004246A17A607AFFF7CEF9054694F90810C4
:1042D0000DF12703029305AB0193CDF80080184B35
:1042E000164AC9B2607AFFF7D9FBA8B1411E002077
:1042F00005F058FB0AAB184410F8143C3B70002042
:1043000030600EE09DF8273001338DF827302568A6
:10431000606801F0FDFB2D1A9DF8273023B1356050
:104320000B200AB0BDE8F081044A138843F007036C
:104330001380002333600C20F3E700BF2C0A002019
:104340006809002060000020F0B583B000238DF8DC
:10435000073005790F2D61D804460368187A40F3B9
:1043600003000722002140B2FFF7F6F860B30026F1
:104370002368187A40F303100722002140B2FFF7A8
:10438000EBF800B901262368187A40F303035BB207
:1043900040F3031040B2834200DD0126022D17D8FE
:1043A000002B00DD012607220521FFF7D5F800B913
:1043B00001262368196805EB450293001C4AD3586F
:1043C000994203D0012704E00126D1E7002700E04D
:1043D0000027CFB106B127BB2EBB37BB6B002B44E8
:1043E0009A00134E16440C222168304605F0E7FA75
:1043F0009DF807307372012303FA05F50D4B1A88F7
:1044000015431D8000200AE023680DF1070118689C
:10441000FFF7EEFA0028DDD10127DBE7032003B028
:10442000F0BD0620FBE70520F9E70420F7E700BF11
:10443000680900202C0A00200178022901D80020F8
:10444000704710B5064C01EB41039A00A0180023F9
:10445000A3504360836010220248FFF7BFF810BDED
:10446000680900202C0A002070B586B050238DF812
:1044700014300379102B30D006B070BD3268535D14
:1044800003932A44517843EA01230393927843EA41
:104490000243642202FB03F303930023049311E01D
:1044A0008DF800406846FFF7C7FF0335EDB20134D1
:1044B000E4B20F2CE0D8072CE0D9002303938DF849
:1044C00014300493039B002BEAD003AB01938DF8C7
:1044D000084001A8FFF738FFE7E706460324002558
:1044E000E7E700B585B003681A6862B903798DF80B
:1044F000043001A8FFF7A0FF18B9002005B05DF84F
:1045000004FB0320FAE7029303798DF80C3002A82C
:10451000FFF71AFF06280BD8DFE800F0040A0A0AA2
:104520000C0608000320E9E70120E7E70020E5E7A3
:104530000020E3E70220E1E7F8B504460678104FD3
:104540007500AA1993003B445B7A0E4901EB0311F5
:104550000D4B90F9012091F9021090F90200FFF73C
:1045600043FA3544AB00FD58A2686168FFF7D0F903
:10457000064BDB6BA289014628469847F8BD00BF71
:1045800068090020600000202C0A00203CFA000886
:104590008A1A50B2002801DBC0B270470020FBE746
:1045A00008B5064B1B7803B108BD044B01221A70F5
:1045B00003F03CFB03F060FBF6E700BF2E0A00208F
:1045C000014B00221A7070472E0A002008B5044BD8
:1045D0001B780BB9002008BD03F066FBFBE700BFAA
:1045E0002E0A00200B7803704B7843708B78837011
:1045F000CB78C3700B7903714B7943718B798371DD
:10460000CB79C3710B7A03724B7A43728B7A8372C4
:10461000CB7AC3720B7B03734B7B43738B7B8373AC
:10462000CB7BC3737047531EDBB22AB111F8012B49
:1046300000F8012B1A46F6E770470B7802785340D2
:1046400003704B784278534043708B7882785340A4
:104650008370CB78C2785340C3700B790279534092
:1046600003714B794279534043718B79827953407E
:104670008371CB79C2795340C3710B7A027A53406C
:1046800003724B7A427A534043728B7A827A534058
:104690008372CB7AC27A5340C3720B7B027B534046
:1046A00003734B7B427B534043738B7B827B534032
:1046B0008373CB7BC27B5340C373704710B40B78BA
:1046C0001478634003704B785478634043708B7860
:1046D000947863408370CB78D4786340C3700B794F
:1046E0001479634003714B795479634043718B793A
:1046F000947963408371CB79D4796340C3710B7A29
:10470000147A634003724B7A547A634043728B7A13
:10471000947A63408372CB7AD47A6340C3720B7B02
:10472000147B634003734B7B547B634043738B7BED
:10473000947B63408373CB7BD27B5340C37310BCA9
:10474000704708B5FFF779FF08BD00000278184BE5
:104750009A5C027002799A5C0271027A9A5C027227
:10476000027B9A5C027342784179595C4170417ACC
:10477000595C4171417B595C41729A5C4273827809
:10478000817A595C81709A5C82728279817B595CF2
:1047900081719A5C8273C27BC17A595CC173C179A1
:1047A000595CC172C178595CC1719B5CC370704720
:1047B00030F800082DE9F04784B004460146684609
:1047C000FFF710FF9DF800C0684B13F80C009DF830
:1047D0000580674A12F808909DF80AE0654911F8CB
:1047E0000E509DF80F70CE5D80EA09006840704061
:1047F000207011F80C0013F808A012F80E9080EA4F
:104800000A0A89EA0A0986EA0906667011F8088028
:1048100013F80EE0D65D80EA08008EEA00007040D2
:10482000A07012F80C60D85D86EA08067540454015
:10483000E5709DF804C013F80C009DF8098012F88B
:1048400008909DF80EE011F80E509DF80370CE5DB3
:1048500080EA090068407040207111F80C0013F8DC
:1048600008A012F80E9080EA0A0A89EA0A0986EA84
:104870000906667111F8088013F80EE0D65D80EA2B
:1048800008008EEA00007040A07112F80C60D85D3C
:1048900086EA080675404540E5719DF808C013F8A2
:1048A0000C009DF80D8012F808909DF802E011F8B8
:1048B0000E509DF80770CE5D80EA09006840704098
:1048C000207211F80C0013F808A012F80E9080EA7C
:1048D0000A0A89EA0A0986EA0906667211F8088056
:1048E00013F80EE0D65D80EA08008EEA0000704002
:1048F000A07212F80C60D85D86EA08067540454043
:10490000E5729DF80CC013F80C009DF8018012F8B8
:1049100008909DF806E011F80E509DF80B70CE5DE2
:1049200080EA090068407040207311F80C0013F809
:1049300008A012F80E9080EA0A0A89EA0A0986EAB3
:104940000906667311F8081013F80EE0D65D4840AA
:104950008EEA00007040A07312F80C20DB5D51401D
:104960004D405D40E57304B0BDE8F08730F60008C7
:1049700030F7000830F800082DE9F843182909D06D
:10498000202907D0102905D0002382F8F030FF201D
:10499000BDE8F88314460D4601462A462046FFF737
:1049A00042FE05F11C07FFB2BF00FFB23B09013B0D
:1049B00084F8F0302B46012628E0182D01D9102A62
:1049C0004FD05A1BD2B214F8029089EA080804F8B2
:1049D000008002F1010814F8088000F1010988EA5A
:1049E0000E0E04F809E002F1020E14F80EE000F1D8
:1049F00002088EEA0C0C04F808C0033214F802C056
:104A0000C21C8CEA0101A1540433DBB2BB4231D297
:104A100018461A1F14F80280DA1E14F802E09A1ED3
:104A200014F802C05A1EA15CB3FBF5F205FB12326A
:104A300012F0FF02C1D1104A12F80E9089EA06095D
:104A400012F80CE012F801C012F80810F2094FEA4F
:104A50004208424402EBC20282EA4606F6B2C84667
:104A6000AFE7054A12F8088012F80EE012F80CC001
:104A7000515CA6E700208BE730F8000892F8F03090
:104A800023B3F0B585B015460F4601461646684675
:104A9000FFF714FE012495F8F030A3420AD96846C6
:104AA000FFF788FE06EB04116846FFF74AFE013463
:104AB000E4B2F0E76846FFF749FE05EB04126946E9
:104AC0003846FFF7FBFD002005B0F0BDFF20704722
:104AD00010B5044610220021F13004F086FF0021B9
:104AE000C4F81411F022204604F07FFF10BD08B571
:104AF0000B46024610211846FFF73EFF08BD2DE980
:104B0000F04184B004460D461646D0F81431EBB39C
:104B1000C3F110084746904528BF174600F2011020
:104B2000BAB2184404F04BFFD4F814313B44C4F833
:104B300014310F2B40D9B0453ED2002308E0E218D3
:104B400092F8F11092F80101414082F8F11001331E
:104B50000F2BF4DD04F1F10022460146FFF78EFF32
:104B60003D44F61B12E004F1F10710223946684675
:104B700004F025FF224669466846FFF77FFF1022B2
:104B80006946384604F01BFF1035103E102E0BD935
:104B900000230F2BE7DCE11891F8F120E85C42409C
:104BA00081F8F1200133F4E7B2B2294604F2011092
:104BB00004F005FFC4F8146104B0BDE8F08130B51D
:104BC00089B005460C46102200210DEB020004F0CE
:104BD0000CFF224604A90846FFF750FF9DF910304C
:104BE000002B19DB002326E008AAD11811F8100CBD
:104BF00001331A4412F8102CD20942EA400201F89B
:104C0000102C0E2BF0DD9DF81F305B00DBB283F023
:104C100087038DF81F3015E00023F2E708AAD118AA
:104C200011F8100C01331A4412F8102CD20942EA80
:104C3000400201F8102C0E2BF0DD9DF81F305B00B8
:104C40008DF81F30D4F81431102B05D09DF9103099
:104C5000002B28DB002335E000230F2B5ADCE11862
:104C600091F8012108A8184410F8100C424081F86E
:104C700001210133F1E708AAD11811F8100C013312
:104C80001A4412F8102CD20942EA400201F8102C02
:104C90000E2BF0DD9DF81F305B00DBB283F0870345
:104CA0008DF81F3015E00023F2E708AAD11811F89B
:104CB000100C01331A4412F8102CD20942EA4002B7
:104CC00001F8102C0E2BF0DD9DF81F305B008DF8E5
:104CD0001F30D4F814312344802283F8012103E0EB
:104CE0002344002283F80121D4F814310133C4F89D
:104CF00014310F2BF4D900230F2B0BDCE11891F8A2
:104D0000012108A8184410F8100C424081F8012134
:104D10000133F1E700230F2B09DCE21892F8F110C0
:104D200092F80101414082F8F1100133F3E71022BB
:104D300004F1F101684604F042FE22462946684625
:104D4000FFF79CFE102200210DEB020004F04DFE47
:104D500009B030BD08B504F0FDFD08BD013103897F
:104D600091FBF3F003FB101080B270470023038027
:104D7000438041600281704738B504460D46418842
:104D8000FFF7ECFF608063681D5438BD38B50446FA
:104D900045680188FFF7E2FF0346285C238038BDA1
:104DA00002884088824214BF00200120704710B55D
:104DB00004464188FFF7D2FF2388984214BF0020A1
:104DC000012010BD10B582B0059C01949DF81040E3
:104DD000009403F031FB02B010BD08B503F080FA77
:104DE00008BD08B503F016FB08BD00000A4B012200
:104DF0001A700A4A13680133136000220270092BEB
:104E000000D8704710B50446044B1A60012004F026
:104E100003F90123237010BD580A0020540A002012
:104E200008B5034B00221A7003F08CFC08BD00BFCC
:104E3000580A002008B503F07DFC08BD08B503F052
:104E4000BBFC08BD0000000038B52F4BD3E900457E
:104E5000002200232046294609F094FF50B34FF06A
:104E600040422A4B2046294609F006FD22A3D3E9F9
:104E7000002309F001FD09F099FF254B1860254B2F
:104E8000D3E90045002200232046294609F07AFF95
:104E900000B34FF040421D4B2046294609F0ECFC80
:104EA00017A3D3E9002309F0E7FC09F07FFF1A4BB1
:104EB000186038BD0022194B2046294609F0DCFC59
:104EC0000DA3D3E9002309F0D7FC09F06FFF104BC5
:104ED0001860D4E70022114B2046294609F0CCFC8B
:104EE00007A3D3E9002309F0C7FC09F05FFF0A4BD1
:104EF0001860DEE7AFF30080176CC1166CC1863F07
:104F0000176CC1166CC1763F380A0020FFFF5F4165
:104F1000400A0020480A0020500A0020000060419A
:104F20002DE9F04F83B00022092A07DC984B134487
:104F3000D97C01F00F01D9740132F5E7944CE07C83
:104F400009F020FC0022934B09F096FC06460F4620
:104F5000207D09F017FC02460B463046394609F021
:104F6000D5FA82468B46607D09F00CFC0022894B05
:104F700009F082FC06460F46A07D09F003FC0246BC
:104F80000B463046394609F0C1FA06460F46207EE8
:104F900009F0F8FB0022804B09F06EFC8046894640
:104FA000607E09F0EFFB00227C4B09F065FC0246B5
:104FB0000B464046494609F0A9FA80468946A07E3C
:104FC00009F0E0FB0022734B09F056FC02460B4649
:104FD0004046494609F09AFA80468946E07E09F043
:104FE000D1FB02460B464046494609F08FFA64A3BE
:104FF000D3E9002309F040FC32463B4609F086FA2B
:105000004FF01132664B09F037FC52465B4609F00F
:105010007DFA02460B46634DC5E90023637F532B9F
:105020000AD00022092A0CDC594B1344D97F01F025
:105030000F01D9770132F5E7286001F1004169607D
:10504000EFE7DFF84CA19AF81F0009F09BFB002264
:10505000524B09F011FC04460D469AF8200009F065
:1050600091FB00224B4B09F007FC06460F469AF8CD
:10507000210009F087FB02460B463046394609F00D
:1050800045FA02460B462046294609F03FFACDE98B
:1050900000019AF8220009F075FB00223D4B09F04F
:1050A000EBFB04460D469AF8230009F06BFB024621
:1050B0000B462046294609F029FA06460F469AF87B
:1050C000250009F05FFB0022334B09F0D5FB0446B5
:1050D0000D469AF8260009F055FB00222F4B09F0E7
:1050E000CBFB02460B462046294609F00FFA044640
:1050F0000D469AF8270009F045FB0022254B09F0E0
:10510000BBFB804689469AF8280009F03BFB024623
:105110000B464046494609F0F9F9804689464FF06A
:1051200011321F4B3046394609F0A6FBDDE900235A
:1051300009F0ECF906460F4642464B462046294602
:1051400009F0E4F910A3D3E9002309F095FB024626
:105150000B463046394609F0D9F902460B46124C47
:10516000C4E900239AF82A30572B02D003B0BDE8D7
:10517000F08F206001F100416160F7E7AFF300803C
:105180002D431CEBE2361A3F96362F6147F6BB3EA5
:105190001C0E00200000244000408F4000005940B9
:1051A0001111913F380A0020480A002008B502F08A
:1051B000BBFE00220B4B0C49D1E9000109F0C4FDF4
:1051C00048B90A4B4FF6FF721A8002F0B5FE074B42
:1051D000B3F9000008BD06480AF024F9034B188013
:1051E000F3E700BF0000F03F300A0020B0000020CD
:1051F000530E002018B370B506461AB3012924DDFA
:1052000090F90030242B0CD00024002533572A2B92
:1052100009D05D40EDB20134A142F7DC4FF0FF3020
:105220000CE00124F1E71646280904F0E6FB307093
:1052300005F00F0004F0E1FB7070601C70BD4FF0D2
:10524000FF3070474FF0FF30F8E74FF0FF30F5E7E1
:1052500030B583B005460C4601AAFFF7CBFF002806
:1052600010DB023C844210DD2A569DF904309A423C
:105270000DD1284490F901209DF905309A4208D0BB
:10528000002000E0002003B030BD0020FBE700203C
:10529000F9E70120F7E7000008B50522154916488F
:1052A0000AF0F0F888B9144B93F82C30302B09D958
:1052B00000201249124BC3E90001FFF731FEFFF74E
:1052C000C3FD08BD00200021F4E705220D490A486E
:1052D0000AF0D8F80028F0D1074B5B7C412B05D0B1
:1052E00000200021064BC3E90001E6E70020034946
:1052F000F8E700BF30F900081C0E00200000F03F66
:10530000300A002038F9000838B590F90030242B15
:1053100003D003F0F1F9002038BD0446FFF798FFF1
:105320000028F9D000230133DAB2E3562C2B04D045
:105330001346062AF7D90020EEE700230125934201
:1053400007D2605DA849C8540133DBB20135EDB224
:10535000F5E70522A549A4480AF094F8002840F092
:105360002C810022531CDBB22A44A2562C2A04D0E2
:105370001A460B2BF6D90020CEE7002207E0605D2D
:105380009949114488710132D2B20135EDB29A4285
:10539000F5D30022531CDBB22A44A2562C2A04D097
:1053A0001A460A2BF6D90020B6E700229A4208D204
:1053B000605D8D491144C8740132D2B20135EDB23D
:1053C000F4E700235A1CD2B22B44E3562C2B04D012
:1053D0001346022AF6D900209EE7002307E0605D0D
:1053E0008149194448770133DBB20135EDB293426C
:1053F000F5D30022531CDBB22A44A2562C2A04D037
:105400001A460B2BF6D9002086E7002207E0605DE4
:1054100075491144C8770132D2B20135EDB29A42D2
:10542000F5D300235A1CD2B22B44E3562C2B04D0C4
:105430001346022AF6D900206EE7002308E0605DDB
:105440006949194481F82A000133DBB20135EDB214
:105450009342F4D300235A1CD2B22B44E3562C2B94
:1054600004D01346022AF6D9002055E7002308E0AD
:10547000605D5D49194481F82C000133DBB20135D0
:10548000EDB29342F4D300235A1CD2B22B44E3561C
:105490002C2B04D01346032AF6D900203CE7002326
:1054A000934209D2605D5049194481F82E000133BE
:1054B000DBB20135EDB2F3E700235A1CD2B22B4424
:1054C000E3562C2B04D01346062AF6D9002023E7F6
:1054D000002308E0605D4449194481F8310001333C
:1054E000DBB20135EDB29342F4D300235A1CD2B2A1
:1054F0002B44E3562C2B04D01346082AF6D900205F
:105500000AE7002308E0605D3749194481F8370055
:105510000133DBB20135EDB29342F4D300235A1CC0
:10552000D2B22B44E3562C2B04D01346022AF6D9D0
:105530000020F1E6002308E0605D2B49194481F862
:105540003F000133DBB20135EDB29342F4D30023C7
:105550005A1CD2B22B44E3562C2B04D01346082AF3
:10556000F6D90020D8E6002308E0605D1E49194402
:1055700081F841000133DBB20135EDB29342F4D33F
:1055800000235A1CD2B22B44E3562C2B04D01346D2
:10559000022AF6D90020BFE60023934209D2605DBB
:1055A0001149194481F849000133DBB20135EDB2EC
:1055B000F3E7FFF771FE0120AEE605220C490A4829
:1055C00009F060FF58B90022531CDBB22A44A256EE
:1055D0002C2A06D01A460B2BF6D900209CE6002078
:1055E0009AE600220EE000BF1C0E002030F90008F1
:1055F00038F90008605D6949114488710132D2B2FE
:105600000135EDB29A42F5D300235A1CD2B22B4495
:10561000E3562C2B04D01346022AF6D900207BE651
:10562000002307E0605D5D49194448740133DBB233
:105630000135EDB29342F5D30022531CDBB22A446C
:10564000A2562C2A04D01A460A2BF6D9002063E66B
:10565000002207E0605D51491144C8740132D2B2A2
:105660000135EDB29A42F5D300235A1CD2B22B4435
:10567000E3562C2B04D0022A00F28E801346F4E766
:10568000002307E0605D4549194448770133DBB2E8
:105690000135EDB29342F5D300235A1CD2B22B440C
:1056A000E3562C2B04D013460B2AF6D9002033E600
:1056B000002307E0605D39491944C8770133DBB244
:1056C0000135EDB29342F5D300235A1CD2B22B44DC
:1056D000E3562C2B04D01346022AF6D900201BE6F1
:1056E000002308E0605D2D49194481F82A00013348
:1056F000DBB20135EDB29342F4D300235A1CD2B28F
:105700002B44E3562C2B04D01346082AF6D900204C
:1057100002E6002308E0605D2049194481F84B004F
:105720000133DBB20135EDB29342F4D300235A1CAE
:10573000D2B22B44E3562C2B04D01346082AF6D9B8
:105740000020E9E5002308E0605D1449194481F870
:1057500053000133DBB20135EDB29342F4D30023A1
:105760005A1CD2B22B44E3562C2B04D01346082AE1
:10577000F6D90020D0E50023934209D2605D0749A5
:10578000194481F85B000133DBB20135EDB2F3E778
:10579000FFF782FD0120BFE50020BDE51C0E0020C3
:1057A000084B4FF6FF721A80002200230649C1E918
:1057B00000230649C1E900230023054A1360054A76
:1057C00013607047B0000020380A0020480A00200B
:1057D000400A0020500A002070B506460D4602F02F
:1057E000A3FB00220A4B0B49D1E9000109F0ACFAF6
:1057F00050B10124084B1B683360084B1B682B60B9
:1058000002F09AFB204670BDFFF7CAFF0024F1E7C3
:105810000000F03F300A0020400A0020500A00201B
:1058200030B583B00A4C24780CB103B030BD0446C7
:10583000012507480570204602F0C6FF054B01937D
:10584000002100912B460A46204602F0F9FFECE7C2
:10585000590A0020801A060008B503F01BF808BD9D
:105860002DE9F04182B0BDF820700F4C247824B9A6
:105870000023184602B0BDE8F081984616460D4652
:105880000446009703F042F808B10123F1E70097BE
:10589000434632462946204603F038F8034600289E
:1058A000E7D00123E5E700BF590A002010B582B018
:1058B000054C247814B9002002B010BDBDF810408A
:1058C000009403F03FF8F7E7590A0020F0B4154BB5
:1058D0001D682C6914B123680B4415E00668761A1C
:1058E0000660286100230361F0BC7047761A0660E9
:1058F00014B123689E1B266028610461F4E71768D1
:105900002546144619463B44002DEDD006689E42BC
:10591000ECD32269002AF2D1F31A0360206100233C
:105920000361E1E75C0A0020054B1B681BB1834261
:1059300003D01B69FAE7002070470120704700BFC1
:105940005C0A002010B50446044B00221A7000685F
:1059500003F0D2FA206003F0CBFA10BD5A0A0020FF
:1059600008B5084B1B6823B10268891A1960002228
:105970001A72036101230372024B1860FFF7E2FF02
:1059800008BD00BF5C0A002000230360436003726F
:10599000C1600361704708B503F0D8FA08BD000084
:1059A00010B5044602F0C0FAB4B12046FFF7BCFFC0
:1059B00090B96168216000232372124B1B6873B198
:1059C0001A7A82B9196823688B4216D22046FFF7EB
:1059D000C7FF02F0B1FA10BD02F0AEFAFBE72046B5
:1059E000FFF7BEFFF5E7FFF7D6FF064B1B68196808
:1059F000814200D20846091AE5E72046FFF766FF14
:105A0000E7E700BF5C0A002008B5134B1B68EBB149
:105A1000FFF7C1FF104B1B681A68824210D80022A2
:105A20001A6000221A720C4B186860B1036853B9EF
:105A30000269094B1A60C368002BF4D09847F2E75B
:105A4000121A1A60EDE708B1037A03B108BD012309
:105A50000372FFF777FFF9E75C0A002010B50446F0
:105A600002F062FA234B1A685AB154B1A2420BD029
:105A700021681346002B37D0A3422FD01A461B694A
:105A8000F8E702F059FA31E0137A43B913690BB31E
:105A90002168184A13601A680A441A6024E0FFF764
:105AA0007AFF2368834200D218461B1A114A1268F3
:105AB00000211172106948B10E4A10600268134447
:105AC000036001230372FFF73DFF0DE0094B002245
:105AD0001A6009E0074B00221A6005E01B6933B128
